{
  "_format": "hh-sol-artifact-1",
  "contractName": "NFTMarket",
  "sourceName": "contracts/NFTMarket.sol",
  "abi": [
    {
      "inputs": [],
      "stateMutability": "nonpayable",
      "type": "constructor"
    },
    {
      "inputs": [],
      "name": "fetchMyNFTs",
      "outputs": [
        {
          "components": [
            {
              "internalType": "uint256",
              "name": "itemId",
              "type": "uint256"
            },
            {
              "internalType": "address",
              "name": "nftContract",
              "type": "address"
            },
            {
              "internalType": "uint256",
              "name": "tokenId",
              "type": "uint256"
            },
            {
              "internalType": "address payable",
              "name": "owner",
              "type": "address"
            },
            {
              "internalType": "uint256",
              "name": "price",
              "type": "uint256"
            }
          ],
          "internalType": "struct NFTMarket.MarketItem[]",
          "name": "",
          "type": "tuple[]"
        }
      ],
      "stateMutability": "view",
      "type": "function"
    },
    {
      "inputs": [],
      "name": "fetchNFTs",
      "outputs": [
        {
          "components": [
            {
              "internalType": "uint256",
              "name": "itemId",
              "type": "uint256"
            },
            {
              "internalType": "address",
              "name": "nftContract",
              "type": "address"
            },
            {
              "internalType": "uint256",
              "name": "tokenId",
              "type": "uint256"
            },
            {
              "internalType": "address payable",
              "name": "owner",
              "type": "address"
            },
            {
              "internalType": "uint256",
              "name": "price",
              "type": "uint256"
            }
          ],
          "internalType": "struct NFTMarket.MarketItem[]",
          "name": "",
          "type": "tuple[]"
        }
      ],
      "stateMutability": "view",
      "type": "function"
    },
    {
      "inputs": [],
      "name": "getListingPrice",
      "outputs": [
        {
          "internalType": "uint256",
          "name": "",
          "type": "uint256"
        }
      ],
      "stateMutability": "view",
      "type": "function"
    },
    {
      "inputs": [
        {
          "internalType": "address",
          "name": "_nftContract",
          "type": "address"
        },
        {
          "internalType": "uint256",
          "name": "_tokenId",
          "type": "uint256"
        },
        {
          "internalType": "uint256",
          "name": "_price",
          "type": "uint256"
        }
      ],
      "name": "mintNFT",
      "outputs": [],
      "stateMutability": "payable",
      "type": "function"
    },
    {
      "inputs": [
        {
          "internalType": "address",
          "name": "_nftContract",
          "type": "address"
        },
        {
          "internalType": "uint256",
          "name": "_itemId",
          "type": "uint256"
        }
      ],
      "name": "sellNFT",
      "outputs": [],
      "stateMutability": "payable",
      "type": "function"
    }
  ],
  "bytecode": "0x60806040526658d15e1762800060035534801561001b57600080fd5b50600160008190555033600260006101000a81548173ffffffffffffffffffffffffffffffffffffffff021916908373ffffffffffffffffffffffffffffffffffffffff1602179055506111e4806100746000396000f3fe60806040526004361061004a5760003560e01c806312e855851461004f578063202e37401461007a578063544807ac146100a55780635a9d10a2146100c157806378f04baf146100dd575b600080fd5b34801561005b57600080fd5b50610064610108565b6040516100719190610eff565b60405180910390f35b34801561008657600080fd5b5061008f610112565b60405161009c9190610e5d565b60405180910390f35b6100bf60048036038101906100ba9190610bd7565b610451565b005b6100db60048036038101906100d69190610c13565b610707565b005b3480156100e957600080fd5b506100f2610917565b6040516100ff9190610e5d565b60405180910390f35b6000600354905090565b606060006101206001610b2e565b905060008060005b838110156101c9573373ffffffffffffffffffffffffffffffffffffffff16600460006001846101589190610f64565b815260200190815260200160002060030160009054906101000a900473ffffffffffffffffffffffffffffffffffffffff1673ffffffffffffffffffffffffffffffffffffffff1614156101b6576001836101b39190610f64565b92505b80806101c19061103e565b915050610128565b5060008267ffffffffffffffff81111561020c577f4e487b7100000000000000000000000000000000000000000000000000000000600052604160045260246000fd5b60405190808252806020026020018201604052801561024557816020015b610232610b52565b81526020019060019003908161022a5790505b50905060005b84811015610446573373ffffffffffffffffffffffffffffffffffffffff166004600060018461027b9190610f64565b815260200190815260200160002060030160009054906101000a900473ffffffffffffffffffffffffffffffffffffffff1673ffffffffffffffffffffffffffffffffffffffff161415610433576000600460006001846102dc9190610f64565b81526020019081526020016000206000015490506000600460008381526020019081526020016000209050806040518060a0016040529081600082015481526020016001820160009054906101000a900473ffffffffffffffffffffffffffffffffffffffff1673ffffffffffffffffffffffffffffffffffffffff1673ffffffffffffffffffffffffffffffffffffffff168152602001600282015481526020016003820160009054906101000a900473ffffffffffffffffffffffffffffffffffffffff1673ffffffffffffffffffffffffffffffffffffffff1673ffffffffffffffffffffffffffffffffffffffff168152602001600482015481525050848681518110610416577f4e487b7100000000000000000000000000000000000000000000000000000000600052603260045260246000fd5b602002602001018190525060018561042e9190610f64565b945050505b808061043e9061103e565b91505061024b565b508094505050505090565b60026000541415610497576040517f08c379a000000000000000000000000000000000000000000000000000000000815260040161048e90610ebf565b60405180910390fd5b6002600081905550600060046000838152602001908152602001600020600401549050600060046000848152602001908152602001600020600201549050813414610517576040517f08c379a000000000000000000000000000000000000000000000000000000000815260040161050e90610e9f565b60405180910390fd5b6004600084815260200190815260200160002060030160009054906101000a900473ffffffffffffffffffffffffffffffffffffffff1673ffffffffffffffffffffffffffffffffffffffff166108fc349081150290604051600060405180830381858888f19350505050158015610593573d6000803e3d6000fd5b508373ffffffffffffffffffffffffffffffffffffffff166342842e0e6004600086815260200190815260200160002060030160009054906101000a900473ffffffffffffffffffffffffffffffffffffffff1633846040518463ffffffff1660e01b815260040161060793929190610e26565b600060405180830381600087803b15801561062157600080fd5b505af1158015610635573d6000803e3d6000fd5b50505050336004600085815260200190815260200160002060030160006101000a81548173ffffffffffffffffffffffffffffffffffffffff021916908373ffffffffffffffffffffffffffffffffffffffff160217905550600260009054906101000a900473ffffffffffffffffffffffffffffffffffffffff1673ffffffffffffffffffffffffffffffffffffffff166108fc6003549081150290604051600060405180830381858888f193505050501580156106f8573d6000803e3d6000fd5b50505060016000819055505050565b6002600054141561074d576040517f08c379a000000000000000000000000000000000000000000000000000000000815260040161074490610ebf565b60405180910390fd5b600260008190555060008111610798576040517f08c379a000000000000000000000000000000000000000000000000000000000815260040161078f90610edf565b60405180910390fd5b60035434146107dc576040517f08c379a00000000000000000000000000000000000000000000000000000000081526004016107d390610e7f565b60405180910390fd5b6107e66001610b3c565b60006107f26001610b2e565b90506040518060a001604052808281526020018573ffffffffffffffffffffffffffffffffffffffff1681526020018481526020013373ffffffffffffffffffffffffffffffffffffffff16815260200183815250600460008381526020019081526020016000206000820151816000015560208201518160010160006101000a81548173ffffffffffffffffffffffffffffffffffffffff021916908373ffffffffffffffffffffffffffffffffffffffff1602179055506040820151816002015560608201518160030160006101000a81548173ffffffffffffffffffffffffffffffffffffffff021916908373ffffffffffffffffffffffffffffffffffffffff16021790555060808201518160040155905050506001600081905550505050565b606060006109256001610b2e565b90506000808267ffffffffffffffff81111561096a577f4e487b7100000000000000000000000000000000000000000000000000000000600052604160045260246000fd5b6040519080825280602002602001820160405280156109a357816020015b610990610b52565b8152602001906001900390816109885790505b5090506000600190505b838111610b24576000600460008381526020019081526020016000206000015490506000600460008381526020019081526020016000209050806040518060a0016040529081600082015481526020016001820160009054906101000a900473ffffffffffffffffffffffffffffffffffffffff1673ffffffffffffffffffffffffffffffffffffffff1673ffffffffffffffffffffffffffffffffffffffff168152602001600282015481526020016003820160009054906101000a900473ffffffffffffffffffffffffffffffffffffffff1673ffffffffffffffffffffffffffffffffffffffff1673ffffffffffffffffffffffffffffffffffffffff168152602001600482015481525050848681518110610af5577f4e487b7100000000000000000000000000000000000000000000000000000000600052603260045260246000fd5b6020026020010181905250600185610b0d9190610f64565b945050508080610b1c9061103e565b9150506109ad565b5080935050505090565b600081600001549050919050565b6001816000016000828254019250508190555050565b6040518060a0016040528060008152602001600073ffffffffffffffffffffffffffffffffffffffff16815260200160008152602001600073ffffffffffffffffffffffffffffffffffffffff168152602001600081525090565b600081359050610bbc81611180565b92915050565b600081359050610bd181611197565b92915050565b60008060408385031215610bea57600080fd5b6000610bf885828601610bad565b9250506020610c0985828601610bc2565b9150509250929050565b600080600060608486031215610c2857600080fd5b6000610c3686828701610bad565b9350506020610c4786828701610bc2565b9250506040610c5886828701610bc2565b9150509250925092565b6000610c6e8383610da0565b60a08301905092915050565b610c8381611008565b82525050565b610c9281610fcc565b82525050565b610ca181610fba565b82525050565b610cb081610fba565b82525050565b6000610cc182610f2a565b610ccb8185610f42565b9350610cd683610f1a565b8060005b83811015610d07578151610cee8882610c62565b9750610cf983610f35565b925050600181019050610cda565b5085935050505092915050565b6000610d21602483610f53565b9150610d2c826110b6565b604082019050919050565b6000610d44601b83610f53565b9150610d4f82611105565b602082019050919050565b6000610d67601f83610f53565b9150610d728261112e565b602082019050919050565b6000610d8a601c83610f53565b9150610d9582611157565b602082019050919050565b60a082016000820151610db66000850182610e08565b506020820151610dc96020850182610c98565b506040820151610ddc6040850182610e08565b506060820151610def6060850182610c89565b506080820151610e026080850182610e08565b50505050565b610e1181610ffe565b82525050565b610e2081610ffe565b82525050565b6000606082019050610e3b6000830186610c7a565b610e486020830185610ca7565b610e556040830184610e17565b949350505050565b60006020820190508181036000830152610e778184610cb6565b905092915050565b60006020820190508181036000830152610e9881610d14565b9050919050565b60006020820190508181036000830152610eb881610d37565b9050919050565b60006020820190508181036000830152610ed881610d5a565b9050919050565b60006020820190508181036000830152610ef881610d7d565b9050919050565b6000602082019050610f146000830184610e17565b92915050565b6000819050602082019050919050565b600081519050919050565b6000602082019050919050565b600082825260208201905092915050565b600082825260208201905092915050565b6000610f6f82610ffe565b9150610f7a83610ffe565b9250827fffffffffffffffffffffffffffffffffffffffffffffffffffffffffffffffff03821115610faf57610fae611087565b5b828201905092915050565b6000610fc582610fde565b9050919050565b6000610fd782610fde565b9050919050565b600073ffffffffffffffffffffffffffffffffffffffff82169050919050565b6000819050919050565b60006110138261101a565b9050919050565b60006110258261102c565b9050919050565b600061103782610fde565b9050919050565b600061104982610ffe565b91507fffffffffffffffffffffffffffffffffffffffffffffffffffffffffffffffff82141561107c5761107b611087565b5b600182019050919050565b7f4e487b7100000000000000000000000000000000000000000000000000000000600052601160045260246000fd5b7f5072696365206d75737420626520657175616c20746f206c697374696e67205060008201527f7269636500000000000000000000000000000000000000000000000000000000602082015250565b7f506c656173652073656e64207468652061736b65642070726963650000000000600082015250565b7f5265656e7472616e637947756172643a207265656e7472616e742063616c6c00600082015250565b7f5072696365206d757374206265206174206c6561737420312077656900000000600082015250565b61118981610fba565b811461119457600080fd5b50565b6111a081610ffe565b81146111ab57600080fd5b5056fea26469706673582212208c1c7f672a12d546f717d4cd9ca97280b73ef20c693116b479a14a962d063d1b64736f6c63430008040033",
  "linkReferences": {},
  "deployedLinkReferences": {}
}